:100000000C9434000C943E000C943E000C943E0082
:100010000C943E000C943E000C943E000C943E0068
:100020000C943E000C943E000C943E000C943E0058
:100030000C943E000C943E000C943E000C943E0048
:100040000C943E000C943E000C943E000C943E0038
:100050000C943E000C943E000C943E000C943E0028
:100060000C943E000C943E0011241FBECFEFD8E04C
:10007000DEBFCDBF0E9449000C9451000C940000DB
:1000800042E320E533ECC9010197F1F74150D9F77C
:100090000895259A2D9A0E9440002D980E944000B4
:0600A000F9CFF894FFCF38
:00000001FF
